:020000040000FA
:1000000001288316031306309F00FF308500870107
:1000100083120313FF308500870183120313053019
:10002000920083120313831603136330920083122A
:10003000031314309500831203130C3097008312BE
:1000400003130518262885182E2821283620643009
:100050001502031921280A3095072128362000307F
:100060001502031921280A3095022128FF30A0002B
:0E007000FF30A100A10B3A28A00B3828080091
:02400E00313F40
:00000001FF
